{
  "_format": "hh-sol-artifact-1",
  "contractName": "DEX",
  "sourceName": "contracts/DEX.sol",
  "abi": [
    {
      "inputs": [
        {
          "internalType": "address",
          "name": "_token",
          "type": "address"
        },
        {
          "internalType": "uint256",
          "name": "_exchange_rate",
          "type": "uint256"
        }
      ],
      "stateMutability": "nonpayable",
      "type": "constructor"
    },
    {
      "anonymous": false,
      "inputs": [
        {
          "indexed": false,
          "internalType": "uint256",
          "name": "amount",
          "type": "uint256"
        }
      ],
      "name": "Bought",
      "type": "event"
    },
    {
      "anonymous": false,
      "inputs": [
        {
          "indexed": true,
          "internalType": "address",
          "name": "previousOwner",
          "type": "address"
        },
        {
          "indexed": true,
          "internalType": "address",
          "name": "newOwner",
          "type": "address"
        }
      ],
      "name": "OwnershipTransferred",
      "type": "event"
    },
    {
      "anonymous": false,
      "inputs": [
        {
          "indexed": false,
          "internalType": "uint256",
          "name": "amount",
          "type": "uint256"
        }
      ],
      "name": "Sold",
      "type": "event"
    },
    {
      "inputs": [],
      "name": "buy",
      "outputs": [],
      "stateMutability": "payable",
      "type": "function"
    },
    {
      "inputs": [],
      "name": "exchange_rate",
      "outputs": [
        {
          "internalType": "uint256",
          "name": "",
          "type": "uint256"
        }
      ],
      "stateMutability": "view",
      "type": "function"
    },
    {
      "inputs": [],
      "name": "owner",
      "outputs": [
        {
          "internalType": "address",
          "name": "",
          "type": "address"
        }
      ],
      "stateMutability": "view",
      "type": "function"
    },
    {
      "inputs": [],
      "name": "renounceOwnership",
      "outputs": [],
      "stateMutability": "nonpayable",
      "type": "function"
    },
    {
      "inputs": [
        {
          "internalType": "uint256",
          "name": "new_rate",
          "type": "uint256"
        }
      ],
      "name": "setExchangeRate",
      "outputs": [],
      "stateMutability": "nonpayable",
      "type": "function"
    },
    {
      "inputs": [],
      "name": "token",
      "outputs": [
        {
          "internalType": "contract IERC20",
          "name": "",
          "type": "address"
        }
      ],
      "stateMutability": "view",
      "type": "function"
    },
    {
      "inputs": [
        {
          "internalType": "uint256",
          "name": "amount",
          "type": "uint256"
        }
      ],
      "name": "transferFees",
      "outputs": [],
      "stateMutability": "nonpayable",
      "type": "function"
    },
    {
      "inputs": [
        {
          "internalType": "address",
          "name": "newOwner",
          "type": "address"
        }
      ],
      "name": "transferOwnership",
      "outputs": [],
      "stateMutability": "nonpayable",
      "type": "function"
    }
  ],
  "bytecode": "0x60806040523480156200001157600080fd5b5060405162001241380380620012418339818101604052810190620000379190620001ae565b6000620000496200017860201b60201c565b9050806000806101000a81548173ffffffffffffffffffffffffffffffffffffffff021916908373ffffffffffffffffffffffffffffffffffffffff1602179055508073ffffffffffffffffffffffffffffffffffffffff16600073ffffffffffffffffffffffffffffffffffffffff167f8be0079c531659141344cd1fd0a4f28419497f9722a3daafe3b4186f6b6457e060405160405180910390a35081600360006101000a81548173ffffffffffffffffffffffffffffffffffffffff021916908373ffffffffffffffffffffffffffffffffffffffff1602179055508060018190555033600260006101000a81548173ffffffffffffffffffffffffffffffffffffffff021916908373ffffffffffffffffffffffffffffffffffffffff160217905550505062000261565b600033905090565b60008151905062000191816200022d565b92915050565b600081519050620001a88162000247565b92915050565b60008060408385031215620001c257600080fd5b6000620001d28582860162000180565b9250506020620001e58582860162000197565b9150509250929050565b6000620001fc8262000203565b9050919050565b600073ffffffffffffffffffffffffffffffffffffffff82169050919050565b6000819050919050565b6200023881620001ef565b81146200024457600080fd5b50565b620002528162000223565b81146200025e57600080fd5b50565b610fd080620002716000396000f3fe60806040526004361061007b5760003560e01c8063bf19d77a1161004e578063bf19d77a146100f7578063db068e0e14610120578063f2fde38b14610149578063fc0c546a146101725761007b565b8063171ef0b214610080578063715018a6146100ab5780638da5cb5b146100c2578063a6f2ae3a146100ed575b600080fd5b34801561008c57600080fd5b5061009561019d565b6040516100a29190610da0565b60405180910390f35b3480156100b757600080fd5b506100c06101a3565b005b3480156100ce57600080fd5b506100d76102dd565b6040516100e49190610cc1565b60405180910390f35b6100f5610306565b005b34801561010357600080fd5b5061011e60048036038101906101199190610b1c565b6106e6565b005b34801561012c57600080fd5b5061014760048036038101906101429190610b1c565b610819565b005b34801561015557600080fd5b50610170600480360381019061016b9190610aca565b61089f565b005b34801561017e57600080fd5b50610187610a48565b6040516101949190610d05565b60405180910390f35b60015481565b6101ab610a6e565b73ffffffffffffffffffffffffffffffffffffffff166101c96102dd565b73ffffffffffffffffffffffffffffffffffffffff161461021f576040517f08c379a000000000000000000000000000000000000000000000000000000000815260040161021690610d60565b60405180910390fd5b600073ffffffffffffffffffffffffffffffffffffffff1660008054906101000a900473ffffffffffffffffffffffffffffffffffffffff1673ffffffffffffffffffffffffffffffffffffffff167f8be0079c531659141344cd1fd0a4f28419497f9722a3daafe3b4186f6b6457e060405160405180910390a360008060006101000a81548173ffffffffffffffffffffffffffffffffffffffff021916908373ffffffffffffffffffffffffffffffffffffffff160217905550565b60008060009054906101000a900473ffffffffffffffffffffffffffffffffffffffff16905090565b6000600154346103169190610dfd565b90506000600360009054906101000a900473ffffffffffffffffffffffffffffffffffffffff1673ffffffffffffffffffffffffffffffffffffffff166370a08231306040518263ffffffff1660e01b81526004016103759190610cc1565b60206040518083038186803b15801561038d57600080fd5b505afa1580156103a1573d6000803e3d6000fd5b505050506040513d601f19601f820116820180604052508101906103c59190610b45565b9050600080831161040b576040517f08c379a000000000000000000000000000000000000000000000000000000000815260040161040290610d40565b60405180910390fd5b8183111561044e576040517f08c379a000000000000000000000000000000000000000000000000000000000815260040161044590610d80565b60405180910390fd5b600360009054906101000a900473ffffffffffffffffffffffffffffffffffffffff1673ffffffffffffffffffffffffffffffffffffffff1663a9059cbb33856040518363ffffffff1660e01b81526004016104ab929190610cdc565b602060405180830381600087803b1580156104c557600080fd5b505af11580156104d9573d6000803e3d6000fd5b505050506040513d601f19601f820116820180604052508101906104fd9190610af3565b50600360009054906101000a900473ffffffffffffffffffffffffffffffffffffffff1673ffffffffffffffffffffffffffffffffffffffff166370a08231306040518263ffffffff1660e01b81526004016105599190610cc1565b60206040518083038186803b15801561057157600080fd5b505afa158015610585573d6000803e3d6000fd5b505050506040513d601f19601f820116820180604052508101906105a99190610b45565b600360009054906101000a900473ffffffffffffffffffffffffffffffffffffffff1673ffffffffffffffffffffffffffffffffffffffff166318160ddd6040518163ffffffff1660e01b815260040160206040518083038186803b15801561061157600080fd5b505afa158015610625573d6000803e3d6000fd5b505050506040513d601f19601f820116820180604052508101906106499190610b45565b6106539190610e57565b9050610a8c6906d8121a194d110000008261066e9190610dcc565b116106a1576906d8121a194d11000000816106899190610dcc565b610a8c6106969190610e57565b6001819055506106aa565b60466001819055505b7f4e08ba899977cf7d4c2964bce71c6b9a7ef76ee5166a4c1249a1e08016e33ef1836040516106d99190610da0565b60405180910390a1505050565b6106ee610a6e565b73ffffffffffffffffffffffffffffffffffffffff1661070c6102dd565b73ffffffffffffffffffffffffffffffffffffffff1614610762576040517f08c379a000000000000000000000000000000000000000000000000000000000815260040161075990610d60565b60405180910390fd5b60008114156107b7573373ffffffffffffffffffffffffffffffffffffffff166108fc479081150290604051600060405180830381858888f193505050501580156107b1573d6000803e3d6000fd5b50610816565b600081111561081557478111156107cd57600080fd5b3373ffffffffffffffffffffffffffffffffffffffff166108fc829081150290604051600060405180830381858888f19350505050158015610813573d6000803e3d6000fd5b505b5b50565b610821610a6e565b73ffffffffffffffffffffffffffffffffffffffff1661083f6102dd565b73ffffffffffffffffffffffffffffffffffffffff1614610895576040517f08c379a000000000000000000000000000000000000000000000000000000000815260040161088c90610d60565b60405180910390fd5b8060018190555050565b6108a7610a6e565b73ffffffffffffffffffffffffffffffffffffffff166108c56102dd565b73ffffffffffffffffffffffffffffffffffffffff161461091b576040517f08c379a000000000000000000000000000000000000000000000000000000000815260040161091290610d60565b60405180910390fd5b600073ffffffffffffffffffffffffffffffffffffffff168173ffffffffffffffffffffffffffffffffffffffff16141561098b576040517f08c379a000000000000000000000000000000000000000000000000000000000815260040161098290610d20565b60405180910390fd5b8073ffffffffffffffffffffffffffffffffffffffff1660008054906101000a900473ffffffffffffffffffffffffffffffffffffffff1673ffffffffffffffffffffffffffffffffffffffff167f8be0079c531659141344cd1fd0a4f28419497f9722a3daafe3b4186f6b6457e060405160405180910390a3806000806101000a81548173ffffffffffffffffffffffffffffffffffffffff021916908373ffffffffffffffffffffffffffffffffffffffff16021790555050565b600360009054906101000a900473ffffffffffffffffffffffffffffffffffffffff1681565b600033905090565b600081359050610a8581610f55565b92915050565b600081519050610a9a81610f6c565b92915050565b600081359050610aaf81610f83565b92915050565b600081519050610ac481610f83565b92915050565b600060208284031215610adc57600080fd5b6000610aea84828501610a76565b91505092915050565b600060208284031215610b0557600080fd5b6000610b1384828501610a8b565b91505092915050565b600060208284031215610b2e57600080fd5b6000610b3c84828501610aa0565b91505092915050565b600060208284031215610b5757600080fd5b6000610b6584828501610ab5565b91505092915050565b610b7781610e8b565b82525050565b610b8681610ed3565b82525050565b6000610b99602683610dbb565b91507f4f776e61626c653a206e6577206f776e657220697320746865207a65726f206160008301527f64647265737300000000000000000000000000000000000000000000000000006020830152604082019050919050565b6000610bff601b83610dbb565b91507f596f75206e65656420746f2073656e6420736f6d6520457468657200000000006000830152602082019050919050565b6000610c3f602083610dbb565b91507f4f776e61626c653a2063616c6c6572206973206e6f7420746865206f776e65726000830152602082019050919050565b6000610c7f602083610dbb565b91507f4e6f7420656e6f75676820746f6b656e7320696e2074686520726573657276656000830152602082019050919050565b610cbb81610ec9565b82525050565b6000602082019050610cd66000830184610b6e565b92915050565b6000604082019050610cf16000830185610b6e565b610cfe6020830184610cb2565b9392505050565b6000602082019050610d1a6000830184610b7d565b92915050565b60006020820190508181036000830152610d3981610b8c565b9050919050565b60006020820190508181036000830152610d5981610bf2565b9050919050565b60006020820190508181036000830152610d7981610c32565b9050919050565b60006020820190508181036000830152610d9981610c72565b9050919050565b6000602082019050610db56000830184610cb2565b92915050565b600082825260208201905092915050565b6000610dd782610ec9565b9150610de283610ec9565b925082610df257610df1610f26565b5b828204905092915050565b6000610e0882610ec9565b9150610e1383610ec9565b9250817fffffffffffffffffffffffffffffffffffffffffffffffffffffffffffffffff0483118215151615610e4c57610e4b610ef7565b5b828202905092915050565b6000610e6282610ec9565b9150610e6d83610ec9565b925082821015610e8057610e7f610ef7565b5b828203905092915050565b6000610e9682610ea9565b9050919050565b60008115159050919050565b600073ffffffffffffffffffffffffffffffffffffffff82169050919050565b6000819050919050565b6000610ede82610ee5565b9050919050565b6000610ef082610ea9565b9050919050565b7f4e487b7100000000000000000000000000000000000000000000000000000000600052601160045260246000fd5b7f4e487b7100000000000000000000000000000000000000000000000000000000600052601260045260246000fd5b610f5e81610e8b565b8114610f6957600080fd5b50565b610f7581610e9d565b8114610f8057600080fd5b50565b610f8c81610ec9565b8114610f9757600080fd5b5056fea264697066735822122044c5988b4d22d7ccc57902af258269a83e042016e379cf8038798cfa05fd660964736f6c63430008000033",
  "linkReferences": {},
  "deployedLinkReferences": {}
}